:040000008A11FD2F35
:100F7200831203138C1EB92F140808008312031363
:100F820085018701831603138501203087009101B3
:100F92008312031391012430960033309300903072
:100FA200970008007030831603138F008A11BF2741
:100FB2008A114130F0007008F1008A11B9278A11B4
:100FC200F0007008F20041307206031DF72F831201
:100FD200031307158714DE2F8312031307118710DB
:100FE2008A11B9278A11F0007008F20042307206A5
:0E0FF2000319ED2F8A11002883018A11D32FD5
:02400E00C4F3F9
:00000001FF
