:100000000A128A11FC2F00308A000408840A820731
:100010000034503472346534733469346F346E3460
:1000200061340034423475347334633461346E3473
:1000300064346F3400344C346C3461347634653459
:100040007334003442346F3474346F346E3400349B
:1009F400831203138501860187018316031385017E
:100A0400023086008030870083160317880189012D
:100A140087012430831603139800333099009030F3
:100A24008312031398000A128A113D270A128A11AD
:100A340001300A128A11DD250A128A110C300A12B9
:100A44008A11DD250A128A110230F8000430F700F9
:100A5400BA30F600F60B2C2DF70B2C2DF80B2C2DA1
:100A640000000800F600452D7308803E412D7308F0
:100A7400C03E412D7308943E412D7308D43EF500C9
:100A84007508F700532D7608013A0319362D033AF9
:100A94000319392D013A03193C2D073A03193F2D47
:100AA400532D77080A128A11DD250A128A11740857
:100AB40084000A128A1103200A128A11003A0319C7
:100AC4000800740884000A128A1103200A128A1189
:100AD4000A128A118B260A128A110130F500750850
:100AE400F407592D7030831603138F000A128A11EC
:100AF400FA240A128A114130F9007908FB004230C5
:100B0400F9007908FC00831203138618D42D0430ED
:100B1400F9007908F3000130FA007A08F400013092
:100B24000A128A1134250A128A110430F90079084C
:100B3400F3001A30FA007A08F40002300A128A111B
:100B440034250A128A117C08831203139900852D17
:100B540006140430F9007908F3000A30FA007A0820
:100B6400F40001300A128A1134250A128A11043061
:100B7400F9007908F3001330FA007A08F40002301F
:100B84000A128A1134250A128A117B08831203136C
:100B940099000D30FA00FB30F900F90BCF2DFA0B58
:100BA400CF2DD42D83120313861CDA2DAA2DD92D13
:100BB4000A128A110028F20083120313851005100B
:100BC4007208F00007300310F00CFF3E031DE52D02
:100BD40070080139F100F10EF10D05087106DF39D5
:100BE400710685007208F00006300310F00CFF3E19
:100BF400031DF72D70080139F100F10E0508710687
:100C0400EF39710685007208F00005300310F00C0E
:100C1400FF3E031D082E70080139F100F10DF10D9E
:100C2400F10D05087106F739710685007208F000A8
:100C340004300310F00CFF3E031D1B2E7008013915
:100C4400F100F10DF10D05087106FB3971068500FF
:100C54000330F000F00B2C2E8312031385140330A1
:100C6400F000F00B332E8312031385107208F0008A
:100C740003300310F00CFF3E031D3B2E70080139B6
:100C8400F100F10EF10D05087106DF3971068500DA
:100C94007208F00002300310F00CFF3E031D4D2ECD
:100CA40070080139F100F10E05087106EF3971067B
:100CB40085007208F0000310700C0139F100F10D89
:100CC400F10DF10D05087106F739710685007208FA
:100CD4000139F000F00DF00D05087006FB397006BF
:100CE40085000330F000F00B752E83120313851476
:100CF4000330F000F00B7C2E8312031385100F30A9
:100D0400F1004730F000F00B852EF10B852E8A2E72
:100D14000800F20083120313851005147208F00012
:100D240007300310F00CFF3E031D932E70080139A9
:100D3400F100F10EF10D05087106DF397106850029
:100D44007208F00006300310F00CFF3E031DA52EC0
:100D540070080139F100F10E05087106EF397106CA
:100D640085007208F00005300310F00CFF3E031DEF
:100D7400B62E70080139F100F10DF10DF10D0508E1
:100D84007106F739710685007208F000043003100B
:100D9400F00CFF3E031DC92E70080139F100F10D5E
:100DA400F10D05087106FB39710685000330F0006A
:100DB400F00BDA2E8312031385140330F000F00BCA
:100DC400E12E8312031385107208F0000330031020
:100DD400F00CFF3E031DE92E70080139F100F10EFD
:100DE400F10D05087106DF39710685007208F000FF
:100DF40002300310F00CFF3E031DFB2E7008013976
:100E0400F100F10E05087106EF39710685007208CC
:100E1400F0000310700C0139F100F10DF10DF10D2A
:100E240005087106F7397106850072080139F0006A
:100E3400F00DF00D05087006FB39700685000330CF
:100E4400F000F00B232F8312031385140330F000FA
:100E5400F00B2A2F8312031385100330F000F00BDC
:100E6400312F0F30F1004730F000F00B372FF10B2A
:100E7400372F3C2F080083160313851205128511A2
:100E840005118510051083120313851205128511AF
:100E94000511851005100F30F4004730F300F30BF3
:100EA400512FF40B512F562F0F30F4004730F3001D
:100EB400F30B5A2FF40B5A2F5F2F0F30F4004730E7
:100EC400F300F30B632FF40B632F682F0F30F40040
:100ED4004730F300F30B6C2FF40B6C2F712F0F3092
:100EE400F4004730F300F30B752FF40B752F7A2FB2
:100EF4000F30F4004730F300F30B7E2FF40B7E2FFA
:100F0400832FF501F50A043075020318B42F8312F8
:100F14000313851205128515051585100510851214
:100F2400051285150515851405100330F300F30B20
:100F3400992F831203138512051285150515851043
:100F440005100F30F4004730F300F30BA72FF40B18
:100F5400A72FAC2F0130F3007308F5070430750296
:100F6400031C892F8312031385120512851505119D
:100F740085100510851205128515051185140510B7
:100F84000330F300F30BC42F8312031385120512ED
:100F940085150511851005100F30F4004730F30056
:100FA400F30BD22FF40BD22FD72F2830F300730872
:100FB400F50075080A128A11DD250A128A1110300B
:100FC400F3007308F50075080A128A11DD250A1268
:100FD4008A11F501F50A75080A128A11DD250A122B
:100FE4008A110F30F3007308F50075080A128A118C
:0C0FF400DD25080083010A128A11742D0B
:02400E00C4E309
:00000001FF
